:020000040000FA
:04000000FEEFFFF020
:020000040001F9
:10FF6400B8ECFFF0FFD70001B2EFFFF0CBECFFF0ED
:10FF7400DDECFFF0BFECFFF01200600E3901D96F29
:10FF8400000EDB6F000EDD6F080EDF6F000EDE6FFC
:10FF94001200000E3901C06F000EC16F000EC26F57
:10FFA400000EC36F000EC46F000EC56F000EC66F47
:10FFB400000EC76F1200000EBA6E000EBB6E000E6C
:10FFC400BC6E000EC26EC368C4683A016069000E5C
:10FFD400506F4069000E816F000E516F000E416F2B
:10FFE400000E616F000E426F000E526F000E626FC2
:0CFFF4004369536963691200B5EFFFF028
:020000040020DA
:10000000FF0FFF0FFF0FFF0FFF0FFF0FFF0FFF0F80
:020000040030CA
:0A0000008CFFF7FF9FFFFFFFFFFFDB
:00000001FF
